S00F0000506F6E675F41322E73726563AF
S11300000C947C000C9499000C9499000C94990025
S11300100C9499000C94D3000C9499000C949900BE
S11300200C9499000C9499000C9499000C949900E8
S11300300C9499000C9499000C9499000C949900D8
S11300400C942B060C9499000C9499000C94990030
S11300500C945D050C941B050C9499000C94990068
S11300600C9499000C9499000C9499000C949900A8
S11300700C9499000C9499000C9499005072657337
S113008073206120627574746F6E206F7220277301
S1130090272F27532720746F207374617274206193
S11300A0206E65772067616D650047414D45204F9F
S11300B05645520043535345323031302F37323096
S11300C031204132206279204E414D20486975200B
S11300D05969202D20343636303435363300504FAC
S11300E04E47001B5B3F323568001B5B324A001BE6
S11300F05B25643B2564480011241FBECFEFD8E084
S1130100DEBFCDBF11E0A0E0B1E0EEECF3E102C050
S113011005900D92A032B107D9F722E0A0E2B1E038
S113012001C01D92AB34B207E1F70E9457040C944E
S1130130E5090C940000E8E6F0E0808182608083A9
S11301408BB382608BBBECE6F0E080818F608083B0
S113015010922001089580912001181614F58091C1
S113016021016FB7F89491E009C0F901EF5DFE4FEA
S11301704081F901E05EFE4F40839F5F292F30E00C
S113018040912001042E000C550B241735076CF305
S11301909091200191509093200166231CF478944F
S11301A008958FEF08951F920F920FB60F921124A6
S11301B02F933F934F938F939F93EF93FF9343B169
S11301C04F7080E026C09091200194300CF5242FCC
S11301D030E0082E02C0359527950A94E2F720FFF7
S11301E017C02091250130E0082E02C035952795CF
S11301F00A94E2F720FD0CC0E091200191E09E0FEB
S1130200909320010E2E000CFF0BEF5DFE4F8083B8
S11302108F5F8430C0F240932501FF91EF919F914D
S11302208F914F913F912F910F900FBE0F901F9080
S113023018950F931F93CF93DF93CDB7DEB728970D
S11302400FB6F894DEBF0FBECDBF0E943D0380E021
S113025090E009C0E1E0F0E0EC0FFD1FE80FF91FAA
S113026025E32083019688309105A4F301E010E092
S113027008C0BE016F5F7F4F802F0E9420030F5F75
S11302801F4F02301105ACF30EE010E008C0BE01B0
S11302906F5F7F4F802F0E9420030F5F1F4F0F302F
S11302A01105ACF328960FB6F894DEBF0FBECDBF90
S11302B0DF91CF911F910F9108951F93CF93DF93F7
S11302C0CDB7DEB728970FB6F894DEBF0FBECDBF0B
S11302D00E943D0310E029C0E12FF0E0E25FFE4FF1
S11302E0908190FF02C02FE001C020EF87E013C08F
S11302F0992344F4E1E0F0E0EC0FFD1FE80FF11D59
S1130300208307C0E1E0F0E0EC0FFD1FE80FF11DD2
S11303101082990F81508111EBCF1982BE016F5F5A
S11303207F4F812F0E9420031F5F1031A8F24FE0FE
S113033064E08EE00E94010328960FB6F894DEBFB5
S11303400FBECDBFDF91CF911F9108951F93CF931F
S1130350DF93CDB7DEB768970FB6F894DEBF0FBE54
S1130360CDBF8C3008F064C020E017C0E22FF0E06D
S1130370EE0FFF1FEE0FFF1FEE0FFF1F41E050E0D7
S11303804C0F5D1FE40FF51FE90FF11D10829F5FF5
S113039001C090E0983050F32F5F2330D0F390EFFA
S11303A09F879A879DEF980F963018F090EF9F8B58
S11303B002C090EF9F83863018F490EF9A8302C0B6
S11303C090EF9A8B853011F08B3019F48FE08E8783
S11303D015C0882331F0843021F0863011F08A3042
S11303E019F48FE08D870AC0813031F0833021F019
S11303F0873011F0893021F48FE08C8710E016C02B
S11304008FE08B87FBCF612F70E0660F771F660F3D
S1130410771F660F771F81E090E08C0F9D1F680F98
S1130420791F8DE0810F0E9420031F5F133058F362
S113043068960FB6F894DEBF0FBECDBFDF91CF91A3
S11304401F910895413031F0423011F040E003C073
S11304504FE001C040EF8E5F0E9401030895FF92B8
S11304600F931F93CF93DF9390E0FC01E25EFE4F66
S1130470F080FC01EA5DFE4F0081002E000C110BA0
S1130480E80106C041E06C2F8F2D0E9422022196C4
S1130490C8010296C817D907ACF3DF91CF911F9119
S11304A00F91FF9008950E941901E6E2F1E083E0C4
S11304B08083818380E00E942F0281E00E942F02CA
S11304C040E060912E0180912F010E94220285E07C
S11304D080932F0184E080932E018FEF809330016D
S11304E081E080932D0142E064E085E00E942202D5
S11304F00895FF920F931F93CF93DF9390E0FC0135
S1130500E25EFE4FF080FC01EA5DFE4F0081002EAA
S1130510000C110BE80106C040E06C2F8F2D0E94E7
S113052022022196C8010296C817D907ACF3DF91BD
S1130530CF911F910F91FF900895EF92FF920F9327
S11305401F93CF93DF93F82EC62F082F082E000C8D
S1130550110BF801E25EFE4FE080F801EA5DFE4F08
S1130560D0810E9479028D2F8C0FCE0D282F082E5A
S1130570000C330B2E5F3F4F2930310554F4882390
S113058044F0F801EA5DFE4F80838F2D0E942F0214
S113059010C08C2F0C2E000C990B029609974CF46A
S11305A0CC233CF0F801EA5DFE4FC0838F2D0E94FE
S11305B02F02DF91CF911F910F91FF90EF9008953B
S11305C0CF93DF9380912F01C0913001C80F6091C8
S11305D02E01D0912D01D60F40E00E942202C0933B
S11305E02F01D0932E0142E06D2F8C2F0E94220206
S11305F0DF91CF91089580E0089580E80E94B005CE
S113060008951F93CF93DF938031B0F46830A0F442
S1130610142FC62FD82F81E00E94DC056C2F677041
S113062080E1689F900111248D2F8F70822B0E948E
S1130630DC05812F0E94DC05DF91CF911F91089585
S11306400F931F93CF938031A0F48B01C82F83E0C5
S11306500E94DC058C2F8F700E94DC05C0E007C06F
S1130660F801EC0FF11D80810E94DC05CF5FC830DA
S1130670B8F3CF911F910F9108958FE00E94DC058C
S113068008950E94FD020E949B0040E060E07BE42C
S113069080E090E00E94C8040E94050678940895C2
S11306A08F929F92AF92BF92CF92DF92EF92FF927E
S11306B0CF930E94F3050E94FC056AE070E08AE093
S11306C090E00E94E2058EED90E09F938F930E944C
S11306D0F7066CE070E08AE090E00E94E20584EBAB
S11306E090E09F938F930E94F7060E945D010E9401
S11306F01B064B015C010F900F900F900F90C0E010
S11307000E940F05882339F080914502909146029A
S11307100E94B90601C08FEF833719F1833509F1BF
S11307200E94AB008F3FE9F40E941B066B017C0121
S1130730AB01BC01481959096A097B09453F51407D
S113074061057105E8F28C2F0E94A6018C2F90E0C0
S113075001966CE070E00E945006C82F46015701D4
S1130760CFCFCF91FF90EF90DF90CF90BF90AF901D
S11307709F908F9008950E94F3050E9453020E9457
S1130780AB000E94160508958F929F92AF92BF927C
S1130790CF92DF92EF92FF92CF930E941B064B0100
S11307A05C0155C00E94AB00C82F0E940F0588232E
S11307B039F080914502909146020E94B90601C029
S11307C081E0873721F0873511F0C33029F461E0E7
S11307D080E00E949D0228C0833741F0833531F0C8
S11307E0843621F0843411F0C23029F46FEF80E0B4
S11307F00E949D0219C08F3621F08F3411F0C13050
S113080029F461E081E00E949D020EC08B3641F024
S11308108B3431F08C3621F08C3411F0C11104C0CA
S11308206FEF81E00E949D020E941B066B017C0118
S1130830D501C4018C509E4FAF4FBF4FC816D90687
S1130840EA06FB0620F00E94E002460157010E94DE
S1130850FB02882309F4A6CFCF91FF90EF90DF909D
S1130860CF90BF90AF909F908F9008956EE070E00E
S11308708AE090E00E94E2058AEA90E09F938F93D9
S11308800E94F7066FE070E08AE090E00E94E205C3
S11308908CE790E09F938F930E94F7060F900F9040
S11308A00F900F900E94AB008F3FE1F308950E94D8
S11308B041030E9450030E94BB030E94C4030E9490
S11308C03604F9CFCF93C82F8A3019F48DE00E94F3
S11308D062049FB7907802C0992329F18091320174
S11308E08F3FD1F3F894E091310181E08E0F809332
S11308F03101F0E0ED5CFE4FC083809132018F5FE7
S113090080933201809131018F3F11F410923101B3
S1130910E1ECF0E0808180628083992339F078945F
S113092080E090E005C081E090E002C080E090E0CB
S1130930CF910895809144028823E1F32FB7207862
S1130940F894809132023091440290E0831B910923
S11309505AF4E091320280914402F0E0E81BF1097C
S1130960ED5BFD4F80810AC0E09132028091440228
S1130970F0E0E81BF109ED5CFD4F808190914402A9
S1130980915090934402222309F0789490E00895C2
S113099010923101109232011092320210924402EC
S11309A01092430240932801DC01CB01880F991F68
S11309B0AA1FBB1F880F991FAA1FBB1F9C01AD0153
S11309C0220F331F441F551F60E072E18AE790E055
S11309D00E946406BA01A9014F5F5F4F6F4F7F4FBA
S11309E0DB01CA011AF40196A11DB11DB595A795A5
S11309F09795879501979093C5008093C400E1EC87
S1130A00F0E088E18083808180688083E5E4F2E01F
S1130A1080E091E093838283918380830895909111
S1130A20440281E0911101C080E0089510923202E5
S1130A301092440208951F920F920FB60F92112440
S1130A402F938F939F93EF93FF9380913201882389
S1130A5029F1809131012091320190E0821B9109AA
S1130A605AF4E091310180913201F0E0E81BF10980
S1130A70EE5CFD4F90810AC0E0913101809132011A
S1130A80F0E0E81BF109ED5CFE4F908180913201AA
S1130A908150809332019093C60005C0E1ECF0E0F0
S1130AA080818F7D8083FF91EF919F918F912F9112
S1130AB00F900FBE0F901F9018951F920F920FB6B4
S1130AC00F9211242F933F934F935F936F937F93D0
S1130AD08F939F93AF93BF93CF93EF93FF93C09163
S1130AE0C60080912801882349F0809132018F3F0C
S1130AF029F060E070E08C2F0E946204809144022F
S1130B00803120F081E08093430218C0CD3009F495
S1130B10CAE0E091320281E08E0F80933202F0E06D
S1130B20ED5CFD4FC083809144028F5F809344024B
S1130B3080913202803111F410923202FF91EF91D0
S1130B40CF91BF91AF919F918F917F916F915F9161
S1130B504F913F912F910F900FBE0F901F901895BA
S1130B6094B1906B94B995B1906195B990E59CBDA1
S1130B70883021F0803211F0823019F491E09DBD6B
S1130B8001C01DBC803269F028F4883071F08031D6
S1130B9061F00EC0803429F0803851F48CB5816046
S1130BA08CBD8CB582608CBD03C08CB581608CBD5E
S1130BB085B18F7E85B908958EBD0DB407FEFDCF36
S1130BC08EB508959F938F937F936F938FEE90E0EC
S1130BD09F938F930E94F7060F900F900F900F90A2
S1130BE00F900F9008958AEE90E09F938F930E9448
S1130BF0F7060F900F90089583EE90E09F938F93E4
S1130C000E94F7060F900F900895109229011092F8
S1130C102A0110922B0110922C0116BC8CE787BD7F
S1130C2092E094BD83E085BDEEE6F0E080818260D1
S1130C30808395BB08958FB7282F2078F89460910E
S1130C40290170912A0180912B0190912C0122237A
S1130C5009F0789408951F920F920FB60F92112401
S1130C608F939F93AF93BF938091290190912A0111
S1130C70A0912B01B0912C010196A11DB11D80936F
S1130C80290190932A01A0932B01B0932C01BF91C9
S1130C90AF919F918F910F900FBE0F901F90189559
S1130CA097FB072E16F4009407D077FD09D00E9415
S1130CB0830607FC05D03EF4909581959F4F0895D7
S1130CC0709561957F4F0895052E97FB1EF400944F
S1130CD00E947B0657FD07D00E94970607FC03D0AD
S1130CE04EF40C947B0650954095309521953F4FDA
S1130CF04F4F5F4F089590958095709561957F4F04
S1130D008F4F9F4F0895AA1BBB1B51E107C0AA1F19
S1130D10BB1FA617B70710F0A61BB70B881F991F98
S1130D205A95A9F780959095BC01CD010895A1E24B
S1130D301A2EAA1BBB1BFD010DC0AA1FBB1FEE1F51
S1130D40FF1FA217B307E407F50720F0A21BB30B9C
S1130D50E40BF50B661F771F881F991F1A9469F718
S1130D6060957095809590959B01AC01BD01CF0174
S1130D700895CF93DF93EC012B8120FF33C026FF2E
S1130D800AC02F7B2B838E819F8101969F838E8344
S1130D908A8190E029C022FF0FC0E881F981808117
S1130DA0082E000C990B009719F420622B831AC0AB
S1130DB03196F983E8830EC0EA85FB85099597FF90
S1130DC009C02B81019611F080E201C080E1822BE1
S1130DD08B8308C02E813F812F5F3F4F3F832E833B
S1130DE0992702C08FEF9FEFDF91CF910895A0E084
S1130DF0B0E0EDEFF6E00C94BC09AE01495F5F4F43
S1130E00DA016D917D91AD0105E412E0F801828172
S1130E109381DC0113962C911397286013962C93DD
S1130E200E941D07D8011296ED91FC91139723811E
S1130E30277F2383E4E00C94D809ABE0B0E0E3E23D
S1130E40F7E00C94AE096C017B018A01FC01178266
S1130E501682838181FFCCC1CE0101963C01F6014B
S1130E609381F70193FD859193FF81917F018823FD
S1130E7009F4BAC1853239F493FD859193FF8191C8
S1130E807F01853229F4B60190E00E941409E7CF6E
S1130E90912C212C312CFFE1F315D8F08B3279F011
S1130EA038F4803279F08332A1F4232D20611DC0FF
S1130EB08D3261F0803369F4232D216016C0832DB7
S1130EC08260382EE32DE4603E2E2AC0F32DF860B4
S1130ED01DC037FC2DC020ED280F2A3040F08E3283
S1130EE0B9F436FC81C1232D2064322E19C036FE9C
S1130EF006C08AE0989E200D1124922E11C0EAE0CB
S1130F002E9E200D1124222EF32DF0623F2E08C0B8
S1130F108C3621F4832D8068382E02C0883641F443
S1130F20F70193FD859193FF81917F018111B3CFE7
S1130F30982F9F7D9554933028F40C5F1F4F9FE3A7
S1130F4099830DC0833631F0833771F0833509F00E
S1130F5059C021C0F801808189830E5F1F4F882406
S1130F608394912C530113C02801F2E04F0E511CBD
S1130F70F801A080B18036FE03C0692D70E002C084
S1130F806FEF7FEFC5010E9409094C018201F32D27
S1130F90FF773F2E16C0280122E0420E511CF801B3
S1130FA0A080B18036FE03C0692D70E002C06FEFEF
S1130FB07FEFC5010E94FE084C01F32DF0683F2E1F
S1130FC0820133FC1BC0822D90E088169906B0F490
S1130FD0B60180E290E00E9414092A94F4CFF5014E
S1130FE037FC859137FE81915F01B60190E00E9444
S1130FF0140921102A9421E0821A91088114910481
S113100071F7E8C0843611F0893641F5F80137FEEE
S113101007C060817181828193810C5F1F4F08C07A
S113102060817181072E000C880B990B0E5F1F4F96
S1131030F32DFF763F2E97FF09C09095809570950C
S113104061957F4F8F4F9F4FF0683F2E2AE030E02D
S1131050A3010E945009882E861845C0853731F4B3
S1131060232D2F7EB22E2AE030E025C0932D997FC8
S1131070B92E8F36C1F018F4883579F0B5C08037B1
S113108019F0883721F0B0C0E92FE061BE2EB4FE1C
S11310900DC0FB2DF460BF2E09C034FE0AC0292FF9
S11310A02660B22E06C028E030E005C020E130E022
S11310B002C020E132E0F801B7FE07C0608171810F
S11310C0828193810C5F1F4F06C06081718180E033
S11310D090E00E5F1F4FA3010E945009882E8618CE
S11310E0FB2DFF773F2E36FE0DC0232D2E7FA22E23
S11310F0891458F434FE0BC032FC09C0832D8E7E53
S1131100A82E05C0B82CA32C03C0B82C01C0B92C40
S1131110A4FE0FC0FE01E80DF11D8081803321F48F
S11311209A2D997EA92E09C0A2FE06C0B394B39449
S113113004C08A2D867809F0B394A3FC11C0A0FEE4
S113114006C0B21488F4280C922C9B180EC0B2145A
S113115060F4B60180E290E00E941409B394F7CFE2
S1131160B21418F42B1802C0982C212CA4FE10C021
S1131170B60180E390E00E941409A2FE17C0A1FC0E
S113118003C088E790E002C088E590E0B6010CC097
S11311908A2D867859F0A1FE02C08BE201C080E25C
S11311A0A7FC8DE2B60190E00E941409891438F47A
S11311B0B60180E390E00E9414099A94F7CF8A94D0
S11311C0F301E80DF11D8081B60190E00E9414093D
S11311D08110F5CF222009F442CEB60180E290E0DE
S11311E00E9414092A94F6CFF6018681978102C0E1
S11311F08FEF9FEF2B96E2E10C94CA09FC01059056
S1131200615070400110D8F7809590958E0F9F1F04
S11312100895FC016150704001900110D8F7809549
S113122090958E0F9F1F08950F931F93CF93DF9375
S1131230FB01238121FD03C08FEF9FEF2CC022FF10
S113124016C046815781248135814217530744F4DF
S1131250A081B1819D012F5F3F4F318320838C9307
S1131260268137812F5F3F4F3783268314C08B013C
S1131270EC01FB010084F185E02D0995892BE1F651
S1131280D80116968D919C911797019617969C9369
S11312908E931697CE01DF91CF911F910F910895F0
S11312A0FA01AA27283051F1203181F1E8946F9393
S11312B06E7F6E5F7F4F8F4F9F4FAF4FB1E03ED039
S11312C0B4E03CD0670F781F891F9A1FA11D680FD7
S11312D0791F8A1F911DA11D6A0F711D811D911D0A
S11312E0A11D20D009F468943F912AE0269F11247F
S11312F03019305D3193DEF6CF010895462F4770E3
S1131300405D4193B3E00FD0C9F7F6CF462F4F703D
S1131310405D4A3318F0495D31FD4052419302D09B
S1131320A9F7EACFB4E0A695979587957795679541
S1131330BA95C9F700976105710508959B01AC0141
S11313400A2E06945795479537952795BA95C9F768
S1131350620F731F841F951FA01D08952F923F9243
S11313604F925F926F927F928F929F92AF92BF92B1
S1131370CF92DF92EF92FF920F931F93CF93DF935D
S1131380CDB7DEB7CA1BDB0B0FB6F894DEBF0FBEBA
S1131390CDBF09942A88398848885F846E847D8407
S11313A08C849B84AA84B984C884DF80EE80FD8009
S11313B00C811B81AA81B981CE0FD11D0FB6F8947F
S11113C0DEBF0FBECDBFED010895F894FFCF40
S11313CE000000030000000062049A0400007E483E
S11313DE787F437F7E407E7F434F00025240000B56
S9030000FC
